:100000000C9462000C948A000C948A000C948A0070
:100010000C948A000C948A000C948A000C948A0038
:100020000C948A000C948A000C948A000C9426028A
:100030000C948A000C948A000C948A000C948A0018
:100040000C94DC010C948A000C948A000C948A00B5
:100050000C948A000C948A000C948A000C948A00F8
:100060000C948A000C948A000000000024002700F1
:100070002A0000000000250028002B0000000008D6
:10008000000201000003040700000000000000005F
:1000900000000000230026002900040404040404D6
:1000A0000404020202020202030303030303010227
:1000B00004081020408001020408102001020408F6
:1000C0001020480411241FBECFEFD8E0DEBFCDBF03
:1000D00011E0A0E0B1E0ECEFFBE002C005900D9272
:1000E000A030B107D9F721E0A0E0B1E001C01D9236
:1000F000A233B207E1F710E0C2E6D0E004C02197D6
:10010000FE010E94F605C136D107C9F70E942703F8
:100110000C94FC050C940000CF92DF92EF92FF92BA
:10012000DC01A03282E0B807D4F5A53BB10514F09C
:10013000A4EBB0E04091300128E830E0241B310905
:1001400047FD3395220F331F220F331F6901330FF1
:10015000EE08FF084091310128E532E0241B310907
:1001600047FD3395220F331F220F331F032E000C40
:10017000440B550B2C193D094E095F09B7FF02C00E
:10018000B0E0A0E00E948D0424EB30E040E050E0BD
:100190000E946304C20ED31EE41EF51ED601E09138
:1001A0002F01EC3080F52091300188E890E0821B2F
:1001B000910927FD9395880F991F880F991FA817FC
:1001C000B90784F02091310188E592E0821B910902
:1001D00027FD9395880F991F880F991FA817B907B6
:1001E0000CF4CD010297880F991F4FB7F8942E2F6A
:1001F00030E0F901EE0FFF1FE20FF31FE55FFE4F46
:10020000928381834FBFFF90EF90DF90CF9008954E
:1002100090E0FC01E458FF4F2491FC01E255FF4FB0
:100220003491FC01E656FF4FE491EE23C9F02223FE
:1002300039F0233001F1A8F4213019F1223029F1ED
:10024000F0E0EE0FFF1FEE58FF4FA591B4918FB76E
:10025000F894EC91611126C030953E233C938FBFFA
:1002600008952730A9F02830C9F0243049F780914B
:1002700080008F7D03C0809180008F778093800005
:10028000DFCF84B58F7784BDDBCF84B58F7DFBCF87
:100290008091B0008F778093B000D2CF8091B00072
:1002A0008F7DF9CF3E2BDACFCF93DF9390E0FC0127
:1002B000E255FF4F249186569F4FFC01849188237D
:1002C000D1F090E0880F991FFC01E859FF4FA591EC
:1002D000B491FC01EE58FF4FC591D49161110EC04D
:1002E0009FB7F8948C91E22FE0958E238C93288110
:1002F000E223E8839FBFDF91CF9108958FB7F894F1
:10030000EC91E22BEC938FBFF6CF3FB7F89480913E
:10031000070190910801A0910901B0910A0126B549
:10032000A89B05C02F3F19F00196A11DB11D3FBF2D
:10033000BA2FA92F982F8827BC01CD01620F711DFC
:10034000811D911D42E0660F771F881F991F4A95F6
:10035000D1F708958F929F92AF92BF92CF92DF9282
:10036000EF92FF924B015C010E9485016B017C01C1
:100370000E9485016C197D098E099F09683E7340B2
:1003800081059105A8F321E0821A9108A108B1081E
:1003900088EEC80E83E0D81EE11CF11C8114910484
:1003A000A104B10429F7FF90EF90DF90CF90BF90A8
:1003B000AF909F908F9008951F920F920FB60F925B
:1003C00011242F933F938F939F93AF93BF9380916B
:1003D000030190910401A0910501B09106013091B3
:1003E000020123E0230F2D3758F50196A11DB11D01
:1003F000209302018093030190930401A0930501CF
:10040000B09306018091070190910801A091090124
:10041000B0910A010196A11DB11D8093070190932F
:100420000801A0930901B0930A01BF91AF919F9178
:100430008F913F912F910F900FBE0F901F901895A5
:1004400026E8230F0296A11DB11DD2CF1F920F9255
:100450000FB60F9211242F933F934F935F936F9397
:100460007F938F939F93AF93BF93CF93DF93EF933C
:10047000FF9380910101C0910001D0E087FF24C06B
:100480001092850010928400809101018F5F80930B
:10049000010180910101082E000C990B8C179D071A
:1004A00024F4809101018C30C4F1809184009091FA
:1004B0008500049680349C4908F47AC080918400B9
:1004C00090918500049676C080910101082E000C61
:1004D000990B8C179D07C4F6E09101018E2FEE0F4A
:1004E000990BFC01EE0FFF1FE80FF91FE55FFE4FB0
:1004F000808186FFC9CFE09101018E2FEE0F990B0D
:10050000FC01EE0FFF1FE80FF91FE55FFE4F808132
:1005100060E08F730E940801B7CF20918400309172
:100520008500E09101018E2FEE0F990BFC01EE0F7B
:10053000FF1FE80FF91FE55FFE4F81819281820F57
:10054000931F9093890080938800E09101018E2F82
:10055000EE0F990BFC01EE0FFF1FE80FF91FE55F8F
:10056000FE4F808186FF11C0E09101018E2FEE0FBA
:10057000990BFC01EE0FFF1FE80FF91FE55FFE4F1F
:10058000808161E08F730E940801FF91EF91DF91FC
:10059000CF91BF91AF919F918F917F916F915F911B
:1005A0004F913F912F910F900FBE0F901F90189574
:1005B00080E49CE990938900809388008FEF80937A
:1005C0000101E3CFCF92DF92EF92FF920F931F933F
:1005D000E82FF92F05C0015011092109310961F1F6
:1005E000908196239417B9F305C001501109210990
:1005F000310911F1908196239413F7CFC12CD12C9E
:10060000E12CF12C0AC08FEFC81AD80AE80AF80AC0
:100610000C151D052E053F0579F080818623841772
:1006200091F36C2D7D2D8E2D9F2D1F910F91FF909D
:10063000EF90DF90CF90089560E070E080E090E070
:100640001F910F91FF90EF90DF90CF9008957894D5
:1006500084B5826084BD84B5816084BD85B58260C7
:1006600085BD85B5816085BD80916E008160809378
:100670006E001092810080918100826080938100E1
:1006800080918100816080938100809180008160F1
:10069000809380008091B10084608093B10080914C
:1006A000B00081608093B00080917A008460809374
:1006B0007A0080917A00826080937A0080917A003B
:1006C000816080937A0080917A00806880937A00BC
:1006D0001092C10080912F018C3008F051C061E070
:1006E0008BE00E94540180912F01282F30E0F90106
:1006F000EE0FFF1FE20FF31FE55FFE4F9081907C2E
:100700009B60908310923001109231012CE0622F97
:100710000E94EA05829FB001112430E020E0AB0185
:10072000420F531FFA01EE0FFF1FE40FF51FE55FA5
:10073000FE4F908196FD16C02F5F3F4F2C30310544
:1007400071F781110FC01092800082E080938100C8
:100750001092850010928400B19A80916F0082609F
:1007600080936F00E0912F018E2F90E0FC01EE0F3F
:10077000FF1FE80FF91FE55FFE4F808180648083D3
:1007800061E085E00E94540160E086E00E9454012F
:1007900061E08DE00E94540184E190E00E948C00B1
:1007A000C3E0D0E043E2E42EF12C54EBC52E50E040
:1007B000D52E60EAA62E60E0B62E70E0872E70E09F
:1007C000972E60E085E00E940801CE010197F1F7C5
:1007D00061E085E00E940801C7010197F1F760E040
:1007E00085E00E940801F6016491F5018491E82FEB
:1007F000F0E0EE0FFF1FE057FF4F8591949100E46A
:1008000012E42FE030E0462F0E94E20261157105EC
:100810008105910529F06F5F7F4F8F4F9F4F9F702C
:1008200095958795779567950E94CD0426E933E4E1
:100830004BE05DE30E942C0520E030E048ED51E400
:100840000E94C60487FF1BC061E08DE00E94080182
:1008500084EB90E00E948C0068EE73E080E090E012
:100860000E94AA016CE271E080E090E00E94AA017F
:100870008114910409F4A5CF0E940000A2CF60E08A
:100880008DE00E94080184E190E00E948C00EACF94
:10089000809100018C3098F491E0980F90930001C2
:1008A00080932F0190E0FC01EE0FFF1FE80FF91F6E
:1008B000E55FFE4F88EB9BE09283818308958FEF85
:1008C00080932F010895052E97FB1EF400940E943B
:1008D0007A0457FD07D00E94950407FC03D04EF41C
:1008E0000C947A0450954095309521953F4F4F4F89
:1008F0005F4F089590958095709561957F4F8F4FCC
:100900009F4F08950E94B704A59F900DB49F900D2E
:10091000A49F800D911D11240895B7FF0C948204AB
:100920000E948204821B930B0895A1E21A2EAA1B37
:10093000BB1BFD010DC0AA1FBB1FEE1FFF1FA2178F
:10094000B307E407F50720F0A21BB30BE40BF50B8C
:10095000661F771F881F991F1A9469F76095709515
:10096000809590959B01AC01BD01CF010895A29F98
:10097000B001B39FC001A39F700D811D1124911D73
:10098000B29F700D811D1124911D08950E940805CC
:1009900008F481E00895E89409C097FB3EF490952F
:1009A0008095709561957F4F8F4F9F4F9923A9F048
:1009B000F92F96E9BB279395F695879577956795D7
:1009C000B795F111F8CFFAF4BB0F11F460FF1BC01B
:1009D0006F5F7F4F8F4F9F4F16C0882311F096E9AE
:1009E00011C0772321F09EE8872F762F05C066235C
:1009F00071F096E8862F70E060E02AF09A95660F15
:100A0000771F881FDAF7880F9695879597F90895CD
:100A1000990F0008550FAA0BE0E8FEEF161617060F
:100A2000E807F907C0F012161306E407F50798F077
:100A3000621B730B840B950B39F40A2661F0232B90
:100A4000242B252B21F408950A2609F4A140A6950C
:100A50008FEF811D811D08950E943F050C94B00504
:100A60000E94A20538F00E94A90520F0952311F0FC
:100A70000C9499050C949F0511240C94E4050E9494
:100A8000C10570F3959FC1F3950F50E0551F629F0C
:100A9000F001729FBB27F00DB11D639FAA27F00DD7
:100AA000B11DAA1F649F6627B00DA11D661F829FFE
:100AB0002227B00DA11D621F739FB00DA11D621FE3
:100AC000839FA00D611D221F749F3327A00D611D00
:100AD000231F849F600D211D822F762F6A2F1124E2
:100AE0009F5750409AF0F1F088234AF0EE0FFF1F15
:100AF000BB1F661F771F881F91505040A9F79E3F6C
:100B0000510580F00C9499050C94E4055F3FE4F3E3
:100B1000983ED4F3869577956795B795F795E795C1
:100B20009F5FC1F7FE2B880F911D9695879597F9CA
:100B3000089597F99F6780E870E060E008959FEF5F
:100B400080EC089500240A94161617061806090664
:100B5000089500240A941216130614060506089533
:100B6000092E0394000C11F4882352F0BB0F40F4BB
:100B7000BF2B11F460FF04C06F5F7F4F8F4F9F4FFB
:100B8000089557FD9058440F551F59F05F3F71F07D
:100B90004795880F97FB991F61F09F3F79F08795E4
:100BA0000895121613061406551FF2CF4695F1DF6D
:100BB00008C0161617061806991FF1CF86957105FD
:100BC000610508940895E894BB2766277727CB0131
:100BD00097F90895991B79E004C0991F961708F0BA
:100BE000961B881F7A95C9F780950895EE0FFF1F11
:0C0BF0000590F491E02D0994F894FFCFDB
:00000001FF
